:1000000061C17AC179C1BEC277C176C175C174C1FF
:1000100073C172C171C170C16FC16EC16DC16CC15C
:100020006BC16AC169C168C167C166C165C164C18C
:1000300063C162C10902220001010080320904008B
:100040000001030000000921010100012235000721
:1000500005810308000A1201100100000008424255
:1000600031E100010102000110035500530042007C
:100070004B006500790073001203620069006E0096
:100080007A0075006D0065002E00040309040A2043
:10009000E381A8E6809DE381A3E3819FE381AEE352
:1000A00081AFEFBC8CE695B0E5B9B4E5898D20034E
:1000B000610363070003610A0A20555342E3838703
:1000C000E382A3E38390E382A4E382B9E38292E430
:1000D000BD9CE3828AE3819FE38184200361036303
:1000E000070003610A0A202069643A2062696E7A77
:1000F000756D652003610363070003610AE887AA41
:10010000E5B7B1E7B4B9E4BB8B0A0A20E5908DE509
:10011000898D3AE5B79DE5B9B3E888AAE4BB8B0AB7
:1001200020E68980E5B19E3AE7A094E7A9B6E99672
:100130008BE799BAE983A80A2020202020E7ACACFD
:10014000E585ADE9968BE799BAE382BBE382AFE33D
:1001500082B7E383A7E383B30A2032303039E5B9AD
:10016000B4E696B0E58D920A20313346E381ABE3E5
:100170008184E381BEE38199036103630700036126
:100180000A0A20555342E38387E382A3E38390E383
:1001900082A4E382B9E38292E4BD9CE381A3E3817C
:1001A000A6E381BFE3828B0A0A202020E7A094E91E
:1001B000968BEFBC96E382BBE382AF20E5B79DE56B
:1001C000B9B3E888AAE4BB8B0A2020202020202095
:1001D00020284062696E7A756D65290361036307A3
:1001E00004207807046F66090935300A0700046F98
:1001F000660909390A07042072036107656E640302
:1002000061070363000572076E6F74657061640AAD
:1002100007046F660909380A61726773203D205729
:100220005363726970742E417267756D656E747375
:100230003B72657475726E20746869733B0A7D0A3F
:1002400003612072656164792E0361036300050117
:100250000906A101950575010508190129059102F5
:10026000950175039103050719E029E7150025019C
:100270007501950881029501750825651900299079
:100280008100C0002C021E021F0220022102220255
:1002900023022402250226023402330036002D00F8
:1002A0003700380027001E001F0020002100220018
:1002B00023002400250026003400330236022D02DC
:1002C0003702380011241FBECFEFD4E0DEBFCDBF10
:1002D00011E0A0E0B1E0E0E6FBE002C005900D9285
:1002E000A231B107D9F711E0A2E1B1E001C01D923E
:1002F000A235B107E1F7F7C283CECF93C62FDC0159
:100300008091270184FF07C08091280198E8892700
:100310008093280103C08AE580932701E9E2F1E098
:100320009C2F8D91819391501916DCF36C2F89E2EB
:1003300091E024D1CC5FC0932701CF910895CF9352
:10034000DF9360913801635067FDA2C08091350151
:10035000C8E4D1E0C81BD109809134018D3209F085
:1003600085C0683009F092C083EC80931C018AE557
:1003700080930001109212018881807621F0CE01D5
:100380005DD2982F60C0282F45E251E09A8180937A
:1003900025018981882321F42093260122E04EC083
:1003A000853019F49093390149C08630A1F58B81CD
:1003B000813021F422E186E590E025C0823021F4ED
:1003C00022E284E390E01FC0833091F4992321F46A
:1003D00024E08AE890E017C0913021F422E188E718
:1003E00090E011C0923099F420E188E690E00BC0D3
:1003F000813221F429E086E490E005C0823239F4AC
:1004000025E38EE492E0909337018093360180E4F7
:100410008093120117C0883019F44BE351E007C0F4
:10042000893019F490933B0109C08A3011F421E01E
:1004300005C08B3019F48BE4809328015093370169
:1004400040933601922F9F3F39F4888187FD9E812A
:1004500080E88093120107C08F81882321F48E8168
:10046000891708F4982F9093010110C08091120110
:1004700087FF0CC0CE010DD28F3F21F48EE1809317
:10048000000104C0882311F010920101109238017C
:100490008091000184FF3DC0809101018F3FC9F12F
:1004A000682F893008F068E0861B809301018091F5
:1004B0001C0198E8892780931C01ADE1B1E0662317
:1004C000B9F0962FE0913601F09137018091120139
:1004D00086FF06C084918D9331969150D9F704C060
:1004E00081918D939150E1F7F0933701E0933601BC
:1004F0007727C62F693038F48DE191E03FD0CC5F8B
:10050000CC3028F401C0CEE18FEF80930101C0937D
:1005100000019AE083B1837011F49150D9F79923C7
:1005200021F49093390190933301DF91CF91089595
:1005300080916B00826080936B0080916800816085
:10054000809368008BE4809328018AE580932701DB
:100550000895A82FB92F80E090E041E050EA60951F
:100560006F5F58F42D9138EF82279795879510F09B
:10057000842795273F5FC8F3F3CF0895EADF8D9373
:100580009D930895CF93CFB7CF93189BFECF189B21
:1005900009C0189B07C0189B05C0189B03C0189B77
:1005A00001C0A3C0DF93C0913501DD27C45CDE4FDD
:1005B000189B02C0DF91EBCF2F930F931F9303B1D2
:1005C0002FEF00FB20F94F933F9313B14FEF01271B
:1005D00000FB21F93BE031C04E7F012F13B12160B8
:1005E00028C0102F4D7F2260000003B129C04B7F2F
:1005F0002460012F000013B12BC013B1477F286086
:100600002AC04F7E03B120612CC04F7D13B1206200
:100610002FC04F7B03B1206432C0422703B14993FE
:100620004FEF0000102710FB20F913B11370C9F130
:10063000297F91F2012700FB21F903B1237F89F281
:10064000315058F1102710FB22F913B1277E79F2AF
:10065000012700FB23F92F7C81F203B1102710FB47
:1006600024F92F7971F200C013B1012700FB25F99D
:100670002F7359F200C003B1102710FB26F9223066
:1006800040F200C013B1012700FB27F9243028F6FF
:100690004F77206813B10000F9CF11E01BBB002792
:1006A00019C03B503195C31BD04011E01BBB0881E2
:1006B000033CF9F00B34E9F0209133011981110F5B
:1006C0001213EDCF4A81441F093641F10D3211F06A
:1006D000013E29F700933A013F914F911F910F91ED
:1006E0002F91DF91CBB3C0FD50CFCF91CFBFCF9132
:1006F000189500913A01002379F3109138011123E4
:10070000A1F53430A2F130933801009334011091F7
:1007100035013BE0311B3093350129C00091380190
:1007200001301CF50AE54F7049F43091000134FDA9
:1007300020C000930001CCE1D1E01FC0309127011F
:1007400034FD17C000932701C8E2D1E016C0052789
:1007500010E005B91FC0052722C0052727C00527BF
:100760002CC0052710E005B933C04AE503C042EDAF
:1007700001C0432FC4E1D0E032E014B11360289AE5
:1007800005B114B95F9353E020E820FF052705B9B0
:10079000279517951C3FD8F620FF0527279505B903
:1007A00017951C3FC0F620FF05272795179505B91B
:1007B0001C3F98F620FF0527279517951C3F05B984
:1007C00070F600C0499120FF052705B927951795B8
:1007D0001C3F38F620FF0527279505B917951C3FC4
:1007E00038F520FF05272795179505B91C3F10F50B
:1007F00020FF0527279517951C3F05B9E8F4242FFE
:100800003A9519F60C7F5F9105B910913901110FD6
:10081000C651D04011F01093330111E01BBB0160B1
:1008200014B11C7F402F4C7F05B914B945B954CF82
:100830000527D3CF0527D8CF0527DDCFFC0189E1D8
:1008400091E09093370180933601808199278076DB
:1008500090708097D9F48181813019F482E090E022
:100860000895893019F48FEF90E00895823049F4AB
:100870008BE191E0909337018093360181E090E025
:1008800008958A3019F4838180931B0180E090E001
:100890000895FC0110920201808187BD81E090E003
:1008A0000895CF93DF939C01215030408FEF2F3F6D
:1008B000380769F0A8EBBBE0C0E0D0E0CD010197BC
:1008C000F1F7215030408FEF2F3F3807B9F7DF9114
:1008D000CF91089516BC80E884BD84B5816084BD45
:1008E00082E085BD0895CFEFD4E0DEBFCDBF84E0C8
:1008F00084B9F0DF80E887BD8FEF8AB917B888E345
:1009000088B98AE090E0CDDF2A9A12DE7894EE244E
:10091000FF2404EF11E01092190110921A0191E0E6
:10092000D92E0DDD8091270184FFFBCFC7018F7188
:100930009070892B09F010C1C0910201CC2309F0FD
:100940000BC10115110539F00150104062E087E13B
:1009500091E0D3DC01C180911A01D81639F462E02C
:1009600087E191E0CADC8FEFD82EF6C062E089E122
:1009700091E0C3DCD0901A01C0931901C0931A0111
:100980006C2F50911301E52FFF27EE0FFF1FED5F36
:10099000FE4F208131818091150190911601F9015E
:1009A000E80FF91F4491433051F4FC013196F09364
:1009B0001601E093150161E0E20FF31F449144300A
:1009C00069F4E0911501F09116013196F09316014A
:1009D000E09315016460E20FF31F4491453071F418
:1009E00080911501909116010196909316018093C4
:1009F00015016860280F391FF901449120911401F5
:100A0000222389F0223019F442954F7001C04F70B3
:100A1000842F99274A3010F4805D01C0895C482FEB
:100A200021502093140147FF05C082E080931401F8
:100A300045E20DC0442319F4E0E0F0E064C04A3020
:100A400011F488E24AC0493011F48BE246C0842F89
:100A500081568A3128F44D5540931A01435A3FC0BC
:100A6000842F81548A3140F482E0809319014D53E0
:100A700040931A01435C33C0842F8052803268F463
:100A8000E42FFF27EE0FFF1FED5BFD4F8591949143
:100A900090931A018093190122C04B3539F04D35DE
:100AA00061F04B3729F482E08093190180E315C08F
:100AB0004D3729F482E08093190182E30EC04C3552
:100AC00011F487E80AC04E3511F48EE206C04C37A7
:100AD00031F482E08093190189E880931A018091B2
:100AE0001401882349F48091150190911601019613
:100AF000909316018093150180911901862B8093A4
:100B00001901E42FFF27E73019F404E610E024C0B0
:100B1000EE2311F5573070F486B199279C012870A7
:100B2000307083FD07C05F5F50931301309316014F
:100B30002093150120911301222371F086B199278A
:100B4000AC014071507084FD07C021502093130107
:100B500050931601409315010894E11CF11CE1CE5D
:100B60005AFFFF05027E01FA00E200B5008E00EE9A
:020B7000010082
:00000001FF
